:100000000C947B000C94A3000C94A3000C94A3000C
:100010000C94A3000C94A3000C94A3000C94A300D4
:100020000C94A3000C94A3000C94A3000C94A300C4
:100030000C94A3000C94A3000C94A3000C94A300B4
:100040000C9499080C94A3000C9409090C94E308EF
:100050000C94A3000C94A3000C94A3000C94A30094
:100060000C94A3000C94A3004E414E494E495459A0
:10007000494E46CDCCCC3D0AD7233C17B7D1387773
:10008000CC2B329595E6241FB14F0A000020410089
:1000900000C84200401C4620BCBE4CCA1B0E5AAED3
:1000A000C59D7400000000240027002A0000000005
:1000B00000250028002B00040404040404040402A6
:1000C00002020202020303030303030102040810F5
:1000D00020408001020408102001020408102000C2
:1000E00000000800020100000304070000000000F7
:1000F000000000000A0A11241FBECFEFD8E0DEBFC7
:10010000CDBF11E0A0E0B1E0E8EBFBE202C005905A
:100110000D92A43AB107D9F723E0A4EAB1E001C0F7
:100120001D92AD36B207E1F710E0CBE7D0E004C096
:100130002197FE010E948E13CA37D107C9F70E948A
:10014000C90A0C94DA150C94000090E0FC01E1520D
:10015000FF4F2491FC01E553FF4F3491FC01E9541A
:10016000FF4FE491EE23C9F0222339F0233001F14F
:10017000A8F4213019F1223029F1F0E0EE0FFF1F31
:10018000E355FF4FA591B4918FB7F894EC916111AD
:1001900026C030953E233C938FBF08952730A9F0A9
:1001A0002830C9F0243049F7809180008F7D03C04A
:1001B000809180008F7780938000DFCF84B58F7728
:1001C00084BDDBCF84B58F7DFBCF8091B0008F776E
:1001D0008093B000D2CF8091B0008F7DF9CF3E2BBD
:1001E000DACFCF93DF9390E0FC01E553FF4F2491EA
:1001F00089549F4FFC0184918823D1F090E0880FAF
:10020000991FFC01ED55FF4FA591B491FC01E355F9
:10021000FF4FC591D49161110EC09FB7F8948C9196
:10022000E22FE0958E238C932881E223E8839FBF01
:10023000DF91CF9108958FB7F894EC91E22BEC9376
:100240008FBFF6CF8E50806480937C0080917A00BF
:10025000806480937A0080917A0086FDFCCF809143
:1002600078009091790008953FB7F8948091E40167
:100270009091E501A091E601B091E70126B5A89B18
:1002800005C02F3F19F00196A11DB11D3FBFBA2F28
:10029000A92F982F8827BC01CD01620F711D811DE8
:1002A000911D42E0660F771F881F991F4A95D1F76D
:1002B00008958F929F92AF92BF92CF92DF92EF926A
:1002C000FF920E9434014B015C0188EEC82E83E04E
:1002D000D82EE12CF12C0E943401681979098A0981
:1002E0009B09683E734081059105A8F321E0C21A7D
:1002F000D108E108F10888EE880E83E0981EA11C61
:10030000B11CC114D104E104F10429F7FF90EF906E
:10031000DF90CF90BF90AF909F908F900895AF9255
:10032000BF92CF92DF92EF92FF920F931F93CF93E2
:10033000DF936C017B018B01040F151FEB015E0144
:10034000AE18BF08C017D10759F06991D601ED91D9
:10035000FC910190F081E02DC6010995892B79F778
:10036000C501DF91CF911F910F91FF90EF90DF902A
:10037000CF90BF90AF900895FC01538D448D252FF1
:1003800030E0842F90E0821B930B541710F0CF962F
:10039000089501970895FC01918D828D981761F061
:1003A000A28DAE0FBF2FB11D5D968C91928D9F5F78
:1003B0009F73928F90E008958FEF9FEF0895FC0157
:1003C000918D828D981731F0828DE80FF11D858D0A
:1003D00090E008958FEF9FEF0895FC01918D228D9D
:1003E000892F90E0805C9F4F821B91098F73992722
:1003F000089588EE91E00E94ED0121E0892B09F437
:1004000020E0822F089580E090E0892B29F00E945F
:10041000F90181110C9400000895FC01A48DA80F2E
:10042000B92FB11DA35ABF4F2C91848D90E0019636
:100430008F739927848FA689B7892C93A089B18956
:100440008C91837080648C93938D848D981306C0F7
:100450000288F389E02D80818F7D80830895EF925B
:10046000FF920F931F93CF93DF93EC0181E0888F6E
:100470009B8D8C8D98131AC0E889F989808185FF3E
:1004800015C09FB7F894EE89FF896083E889F989E0
:1004900080818370806480839FBF81E090E0DF91E2
:1004A000CF911F910F91FF90EF900895F62E0B8D35
:1004B00010E00F5F1F4F0F731127E02E8C8D8E11F0
:1004C0000CC00FB607FCFACFE889F989808185FF57
:1004D000F5CFCE010E940D02F1CFEB8DEC0FFD2F79
:1004E000F11DE35AFF4FF0829FB7F8940B8FEA8912
:1004F000FB8980818062CFCFCF93DF93EC01888D21
:100500008823B9F0AA89BB89E889F9898C9185FD8E
:1005100003C0808186FD0DC00FB607FCF7CF8C911C
:1005200085FFF2CF808185FFEDCFCE010E940D02C5
:10053000E9CFDF91CF910895CF93DF93FC0127811D
:10054000222359F1EC0161E080850E94F10061E015
:1005500089850E94F1008F81843011F08830B1F4D8
:1005600061E08A850E94F10061E08B850E94F100C4
:100570008FA58F3F91F061E00E94F1006EA581E0B0
:1005800068278FA5DF91CF910C94A500833011F0DF
:10059000863071F761E08A85E9CFDF91CF910895C8
:1005A000CF93DF93FC0127812223A9F0EC01019076
:1005B000F081E02D0284F385E02D60E009958FA5A0
:1005C0008F3F49F061E00E94F1006EA58FA5DF9199
:1005D000CF910C94A500DF91CF910895DC01ED91AE
:1005E000FC91228533854770552766277727415030
:1005F000510961097109473051056105710560F4C0
:10060000FA01EB5FFC4F0C948E130F0311031303DD
:100610001503170319031B0361E0F901099465E051
:10062000FCCF64E0FACF66E0F8CF62E0F6CF6AE094
:10063000F4CF68E0F2CF69E0F0CFCF93DF93EC0125
:10064000CB01BA0126E030E040E050E00E94EC121D
:10065000623071058105910589F16CF461157105B0
:1006600081059105D1F06130710581059105F9F0A1
:10067000DF91CF910895643071058105910561F195
:1006800024F1653071058105910591F7E881F981C3
:100690000284F385E02D66E006C0E881F9810284DA
:1006A000F385E02D64E0CE01DF91CF910994E881DC
:1006B000F9810284F385E02D65E0F5CFE881F981C9
:1006C0000284F385E02D61E0EECFE881F9810284B8
:1006D000F385E02D63E0E7CFE881F9810284F385BB
:1006E000E02D62E0E0CFDC01ED91FC910284F38526
:1006F000E02D437055276627772742305105610565
:10070000710571F0433051056105710559F04130B3
:1007100051056105710511F065E0099466E0FDCFB2
:100720006AE0FBCF69E0F9CFCF93DF93EC01CB0117
:10073000BA0123E030E040E050E00E94EC1261306A
:1007400071058105910599F062307105810591056A
:10075000A9F0672B682B692BC1F4E881F981028429
:10076000F385E02D64E0CE01DF91CF910994E8811B
:10077000F9810284F385E02D61E0F5CFE881F9810C
:100780000284F385E02D62E0EECFDF91CF910895F2
:10079000DC01ED91FC910284F385E02D4370552737
:1007A00066277727423051056105710571F04330A6
:1007B00051056105710559F041305105610571051B
:1007C00011F062E0099463E0FDCF61E0FBCF60E0EF
:1007D000F9CFCF93DF93EC01E881F9810284F385AF
:1007E000E02D8A8160E0811162E0CE010995E88107
:1007F000F9810284F385E02D8A8161E0811163E053
:10080000CE0109958CA59DA58230910538F0880F01
:10081000991F880F991F05970197F1F7E881F981D2
:100820000284F385E02D8A8160E0811162E0CE01CF
:10083000DF91CF910994CF93DF93EC0120E030E07A
:10084000A901688D798D8A8D9B8D0E94B014181630
:100850002CF4E8A9F9A9DF91CF910994EAA9FBA9A1
:10086000FACFCF92DF92EF92FF920F931F93CF9325
:10087000DF93DC011796CC91C43039F0C83059F1C0
:10088000C33019F0C63049F1C2E08C01085F1F4F38
:10089000F12CE12CC62ED12CD1E0F8016481C601E7
:1008A0000E2C02C0959587950A94E2F780FD6D277E
:1008B0000F5F1F4F80810E94A500BFEFEB1AFB0A5C
:1008C000EC1658F3DF91CF911F910F91FF90EF90AD
:1008D000DF90CF900895C4E0D8CFC3E0D6CFDC013D
:1008E0001796EC911797E93008F038C0F0E0E5581A
:1008F000FB4F0C948E1384048A04900496049C0489
:10090000AE04A204AE04A804ED91FC910684F78520
:10091000E02D0994ED91FC910088F189E02DF9CF4B
:10092000ED91FC910288F389E02DF3CFED91FC91DC
:100930000488F589E02DEDCFED91FC910688F789CB
:10094000E02DE7CFED91FC91008CF18DE02DE1CF12
:10095000ED91FC91028CF38DE02DDBCF0895CF92C9
:10096000DF92EF92FF92CF93DF93EC014C895D8988
:100970006E897F8988899989AA89BB89481759070F
:100980006A077B0741F480E0DF91CF91FF90EF9001
:10099000DF90CF90089584179507A607B707E4F571
:1009A00081E08A838B819C81AD81BE81892B8A2BDA
:1009B0008B2B49F30E9434016B017C0188A599A51A
:1009C000AAA5BBA5B701A601481B590B6A0B7B0B57
:1009D0008B819C81AD81BE81481759076A077B07CF
:1009E00090F288899989AA89BB892A812223B1F04A
:1009F0000196A11DB11D888B998BAA8BBB8B488951
:100A000059896A897B89CE010E946F04C8A6D9A63C
:100A1000EAA6FBA681E0B8CF1A82C4CF0197A1094C
:100A2000B109E9CF4F925F926F927F92AF92BF92DE
:100A3000CF92DF92EF92FF920F931F93CF93DF93AA
:100A4000EC015A018B019A01AB01688D798D8A8D79
:100A50009B8D0E94C511882379F14C8C5D8C6E8C26
:100A60007F8C73016201F7FAF094F7F8F094A70114
:100A70009601B501C8010E94C51187FD0CC0A301F4
:100A80009201B501C8010E94B014730162011816E9
:100A900014F06501780120E030E0A901C701B6013A
:100AA0000E94C511811117C01B821C821D821E82EB
:100AB000C88ED98EEA8EFB8EDF91CF911F910F9158
:100AC000FF90EF90DF90CF90BF90AF907F906F90AE
:100AD0005F904F900895A701960160E074E284E76B
:100AE00099E40E9408149F770E9481146B837C8391
:100AF0008D839E8311E020E030E0A901C701B6019B
:100B00000E94B01418160CF010E01A83D1CF4F9247
:100B10005F926F927F928F929F92AF92BF92CF928D
:100B2000DF92EF92FF920F931F93CF93DF93EC012D
:100B3000CC88DD88EE88FF8888899989AA89BB8955
:100B4000C81AD90AEA0AFB0A688D798D8A8D9B8DAD
:100B50009B01AC010E942B124B015C0168A179A1A1
:100B60008AA19BA19B01AC010E949C139B01AC013B
:100B7000C501B4010E9408140E947A14C114D10462
:100B8000E104F10409F0B6C06230710581059105F8
:100B90000CF0D0C01B821C821D821E82188E198E02
:100BA0001A8E1B8E1CAA1DAA1EAA1FAAC12CD12CEC
:100BB0007601C701B601DF91CF911F910F91FF9090
:100BC000EF90DF90CF90BF90AF909F908F907F90ED
:100BD0006F905F904F90089510161106120613063D
:100BE000B4F46C157D058E059F051CF42A81211136
:100BF000A1C09B01AC0188279927DC01821B930BC4
:100C0000A40BB50B8CAB9DABAEABBFAB93C00115CA
:100C100011052105310509F48DC06C157D058E0582
:100C20009F050CF087C08A81882309F483C0309522
:100C30002095109501951F4F2F4F3F4F0CAB1DABCB
:100C40002EAB3FAB77C0011511052105310509F425
:100C500071C08824992454018C189D08AE08BF08DF
:100C6000681579058A059B050CF064C08A8181119D
:100C700061C0DDCFCCACDDACEEACFFACA701960122
:100C8000C701B6010E949C132B013C01C501B401B0
:100C90000E94CC1120E030E040E850E40E942B128A
:100CA00020E030E040E85FE30E949C139B01AC0130
:100CB000C301B2010E9408149B01AC01C701B60137
:100CC0000E949B133B016C01FE01E05CFF4FE08042
:100CD000F180028113819701A8010E94B0141816B7
:100CE00014F473018601C701D8018CAF9DAFAEAF7C
:100CF000BFAF3AC00CA91DA92EA93FA91C141D0401
:100D00001E041F040CF468CF1016110612061306F9
:100D10000CF099CF0027112798010C191D092E09F5
:100D20003F0960177107820793070CF062CF2A8191
:100D300021115FCF8CA89DA8AEA8BFA881149104F3
:100D4000A104B10409F096CF88AD99ADAAADBBADB1
:100D50008CAF9DAFAEAFBFAF81E01C141D041E046D
:100D60001F040CF080E08A833FEF831A930AA30AE2
:100D7000B30A8CAA9DAAAEAABFAA8CAC9DACAEAC9D
:100D8000BFACC501B4010E9481146B017C01CB8210
:100D9000DC82ED82FE82A501940160E074E284E7CA
:100DA00099E40E940814688F798F8A8F9B8F2A811B
:100DB0002111FFCE9058688F798F8A8F9B8FF9CE43
:100DC000CF92DF92EF92FF92CF93DF93EC01688D89
:100DD000798D8A8D9B8D9B01AC010E942B126B013A
:100DE0007C0168A179A18AA19BA19B01AC010E9411
:100DF0009C139B01AC01C701B6010E9408140E941C
:100E00007A146CAB7DAB8EAB9FABCE01DF91CF91F3
:100E1000FF90EF90DF90CF900C9487050F931F9376
:100E2000FC010489158926893789041715072607C7
:100E3000370741F0448B558B668B778B1F910F9151
:100E40000C9487051F910F9108954F925F926F92B6
:100E50007F928F929F92AF92BF92CF92DF92EF924A
:100E6000FF92CF93DF93EC01488C598C6A8C7B8C7A
:100E700020E030E0A901C301B2010E94C51188231E
:100E800009F447C0A3019201C301B2010E942B12D1
:100E90006B017C0168A179A18AA19BA19B01AC0196
:100EA0000E949C139B01AC01C701B6010E9408146B
:100EB0000E947A146B017C0188889988AA88BB8873
:100EC00020E030E0A901C301B2010E94B014B701D3
:100ED000A6011816CCF44F5F5F4F6F4F7F4F480D40
:100EE000591D6A1D7B1DCE01DF91CF91FF90EF90C0
:100EF000DF90CF90BF90AF909F908F907F906F903A
:100F00005F904F900C940E074095509560957095AA
:100F1000E6CFDF91CF91FF90EF90DF90CF90BF9021
:100F2000AF909F908F907F906F905F904F900895BB
:100F30000895CF92DF92EF92FF920F931F93CF937A
:100F4000DF9300D0CDB7DEB769834A83880F991F3E
:100F50000091630310916403000F111FEDE0F3E0B3
:100F60009F012D5033402017310714F41192F8CF10
:100F70002981FC01E35FFC4F21838A81808360E04B
:100F8000809161030E94A5001016110604F501501E
:100F90001109F801E35FFC4FE080D0905F03C0903F
:100FA0005D0388E0F82E6E2D661F6627661F8C2D68
:100FB0000E94A500EE0C61E08D2D0E94A50060E06E
:100FC0008D2D0E94A500FA94F110EDCFDDCF61E0E8
:100FD000809161030F900F90DF91CF911F910F913E
:100FE000FF90EF90DF90CF900C94A500EF92FF92CE
:100FF0000F931F93CF937C018C0183E0000F111F8F
:101000008A95E1F7035E1C4FC1E0F80111928F0150
:1010100040E06C2FC7010E949907CF5FC930A9F744
:10102000CF911F910F91FF90EF9008953F924F92B3
:101030005F926F927F928F929F92AF92BF92CF9268
:10104000DF92EF92FF920F931F93CF93DF93609005
:10105000BA017090BB017092AB016092AA0193E05B
:10106000660C771C9A95E1F708E010E028E0C22EA4
:10107000D12C30E8A32EB12C48E0442E809163039C
:101080009091640318161906D4F5F301E00FF11FCF
:10109000E15FFE4FE780C601801B910B950102C006
:1010A000359527958A95E2F7322E522E5094CDE051
:1010B000D3E087E0882E912CF12C809163039091EE
:1010C0006403181619069CF488899701082C02C03D
:1010D000359527950A94E2F720FF27C08329888B4E
:1010E0004889642D681990E080E00E94990731E0FA
:1010F000831A910821968FEF88169806F1F6015011
:10110000110909F0BBCFDF91CF911F910F91FF9093
:10111000EF90DF90CF90BF90AF909F908F907F9097
:101120006F905F904F903F9008958521D8CF0C9499
:1011300051151F920F920FB60F9211242F933F93C8
:101140008F939F93AF93BF938091E0019091E101C2
:10115000A091E201B091E3013091DF0123E0230F80
:101160002D3758F50196A11DB11D2093DF01809305
:10117000E0019093E101A093E201B093E30180913B
:10118000E4019091E501A091E601B091E70101969B
:10119000A11DB11D8093E4019093E501A093E601A8
:1011A000B093E701BF91AF919F918F913F912F91A4
:1011B0000F900FBE0F901F90189526E8230F0296F0
:1011C000A11DB11DD2CF1F920F920FB60F92112405
:1011D0002F933F934F935F936F937F938F939F933F
:1011E000AF93BF93EF93FF9388EE91E00E940D02BF
:1011F000FF91EF91BF91AF919F918F917F916F91EF
:101200005F914F913F912F910F900FBE0F901F90C4
:1012100018951F920F920FB60F9211242F938F9350
:101220009F93EF93FF93E091F801F091F901808192
:10123000E091FE01F091FF0182FD1BC09081809141
:1012400001028F5F8F7320910202821741F0E091BB
:101250000102F0E0E851FE4F958F80930102FF916B
:10126000EF919F918F912F910F900FBE0F901F9034
:1012700018958081F4CF8F929F92AF92BF92CF92B8
:10128000DF92EF92FF920F931F93CF93DF93EC01C6
:101290008BE691E09983888381E08F83188A198A8D
:1012A0001A8A1B8A1C8A1D8A1E8A1F8A188E198E0A
:1012B0001A8E1B8E1C8E1D8E1E8E1F8E18A219A2BA
:1012C0001AA21BA2C12CD12C80E8E82E8FE3F82EA5
:1012D000CCA2DDA2EEA2FFA21B821C821D821E8276
:1012E00081E090E09DA78CA78FEF8FA718A619A685
:1012F0001AA61BA66887498784E08A8785E08B87C2
:101300001EA61CAA1DAA1EAA1FAA18AE19AE1AAEA6
:101310001BAE1CAE1DAE1EAE1FAE8E01005C1F4F7D
:10132000F801C082D182E282F3821A821C861D8675
:101330001E861F86CE010E949C0288A099A0AAA0AA
:10134000BBA0A7019601C501B4010E94C511882365
:10135000F9F06CA97DA98EA99FA90E94CC11A501C5
:1013600094010E942B120E947A146CAB7DAB8EAB61
:101370009FAB86E896E6A9E6B9E488AF99AFAAAF35
:10138000BBAFC8A2D9A2EAA2FBA2CE010E948705E8
:1013900020E030E040E85FE36C8D7D8D8E8D9F8D89
:1013A0000E94C511882349F180E090E0A0E8BFE3E6
:1013B0008C8F9D8FAE8FBF8F80E094E2A4E7B9E45D
:1013C000F80180839183A283B3838CA99DA9AEA9E0
:1013D000BFA9181619061A061B067CF4CE01DF9168
:1013E000CF911F910F91FF90EF90DF90CF90BF9022
:1013F000AF909F908F900C94E006DF91CF911F915A
:101400000F91FF90EF90DF90CF90BF90AF909F90A3
:101410008F900895CF93DF931092EB011092EA0121
:1014200088EE93E0A0E0B0E08093EC019093ED01B2
:10143000A093EE01B093EF018BE891E09093E90166
:101440008093E80185EC90E09093F5018093F4019E
:1014500084EC90E09093F7018093F60180EC90E0AB
:101460009093F9018093F80181EC90E09093FB0157
:101470008093FA0182EC90E09093FD018093FC014F
:1014800086EC90E09093FF018093FE0110920102A0
:10149000109202021092030210920402CCE0D0E0FB
:1014A000D0935E03C0935D038AE090E09093600365
:1014B00080935F038BE090E09093620380936103DD
:1014C00081E090E0909364038093630361E08CE09B
:1014D0000E94F10061E080915F030E94F10061E0F1
:1014E000809161030E94F10061E0809161030E949C
:1014F000A500D0935E03C0935D03EDE1F3E011928C
:1015000083E0ED35F807D9F7D0E0C0E080916303C0
:1015100090916403C817D90774F540E06FE0CE01DD
:101520000E9499078091630390916403C817D907BB
:101530002CF447E06BE0CE010E94990740E069E09F
:10154000CE010E9499078091630390916403C817AC
:10155000D9071CF4CE010E94F60780916303909195
:101560006403C817D9072CF440E06CE0CE010E9458
:1015700099072196CBCF42E063E089EC92E00E948C
:101580003B0944E065E085E892E0DF91CF910C945F
:101590003B09789484B5826084BD84B5816084BD44
:1015A00085B5826085BD85B5816085BD80916E0001
:1015B000816080936E001092810080918100826032
:1015C000809381008091810081608093810080916F
:1015D00080008160809380008091B100846080935E
:1015E000B1008091B00081608093B00080917A005A
:1015F000846080937A0080917A00826080937A0080
:1016000080917A00816080937A0080917A0080686E
:1016100080937A001092C100E091F801F091F901F5
:1016200082E08083E091F401F091F5011082E09175
:10163000F601F091F70180E1808310920002E091C1
:10164000FC01F091FD0186E08083E091FA01F091C8
:10165000FB01808180618083E091FA01F091FB01C0
:10166000808188608083E091FA01F091FB018081A4
:1016700080688083E091FA01F091FB0180818F7D89
:10168000808360E084E10E94F10060E085E10E94D7
:10169000F10061E086E00E94F10061E087E00E94D5
:1016A000F10061E088E00E94F10061E089E00E94C1
:1016B000F10080916303909164031816190634F4C5
:1016C00041E06CE090E080E00E9499078091630324
:1016D000909164031816190634F440E06AE090E033
:1016E00080E00E949907809163039091640318162B
:1016F000190624F490E080E00E94F6070E94160884
:101700000E94590120E030E04AEF56E46091E50282
:101710007091E6028091E7029091E8020E94C51163
:10172000882349F180E090E0AAEFB6E48093E502D7
:101730009093E602A093E702B093E80280E090E085
:10174000AAEFB1E48093090390930A03A0930B03DB
:10175000B0930C038091FD029091FE02A091FF02D4
:10176000B0910003181619061A061B0624F489EC1A
:1017700092E00E94E00620E030E04AEF56E46091FB
:10178000A1027091A2028091A3029091A4020E94F2
:10179000C511882349F180E090E0AAEFB6E4809378
:1017A000A1029093A202A093A302B093A40280E0AE
:1017B00090E0AAEFB1E48093C5029093C602A09393
:1017C000C702B093C8028091B9029091BA02A09169
:1017D000BB02B091BC02181619061A061B0624F4A7
:1017E00085E892E00E94E00684E10E942201892BB4
:1017F000A9F049E354EE6FEF7FEF89EC92E00E948D
:101800000E0740E050E068EC75E489EC92E00E943D
:10181000120589EC92E00E94AF04E6CF89EC92E0D9
:101820000E94250788EA9FEFAFEFBFEF8093D902B0
:101830009093DA02A093DB02B093DC028093DD0286
:101840009093DE02A093DF02B093E0021092FD02BB
:101850001092FE021092FF02109200031092CC022E
:101860001092CD021092CE021092CF021092E1029D
:101870001092E2021092E3021092E4028091D902E7
:101880009091DA02A091DB02B091DC02B7FF14C0A4
:1018900040E050E0BA0189EC92E00E940E0740E07F
:1018A00050E068EC75E489EC92E00E94120589EC46
:1018B00092E00E94AF04E2CF84E10E942201892BD2
:1018C000A9F047EC5BE160E070E089EC92E00E94F7
:1018D0000E0740E050E068EC75E489EC92E00E946D
:1018E000120589EC92E00E94AF04E6CF89EC92E009
:1018F0000E9425076091D9027091DA028091DB0283
:101900009091DC020E94CC1126E535E545ED52E4CC
:101910000E949B130E947A14609304017093050146
:1019200080930601909307018091D9029091DA0289
:10193000A091DB02B091DC02181619061A061B06EC
:10194000A4F440E050E0BA0189EC92E00E940E0756
:1019500040E050E068EC75E489EC92E00E941205EA
:1019600089EC92E00E94AF04DFCF85E10E94220162
:10197000892BA9F049E354EE6FEF7FEF85E892E001
:101980000E940E0740E050E068EC75E485E892E0C4
:101990000E94120585E892E00E94AF04E6CF85E838
:1019A00092E00E94250789EB9FEFAFEFBFEF809396
:1019B000950290939602A0939702B0939802809319
:1019C000990290939A02A0939B02B0939C0210926A
:1019D000B9021092BA021092BB021092BC0210928D
:1019E00088021092890210928A0210928B02109241
:1019F0009D0210929E0210929F021092A00280916E
:101A0000950290919602A0919702B0919802B7FF2B
:101A100014C040E050E0BA0185E892E00E940E0751
:101A200040E050E068EC75E485E892E00E94120521
:101A300085E892E00E94AF04E2CF85E10E94220196
:101A4000892BA9F047EC5BE160E070E085E892E06B
:101A50000E940E0740E050E068EC75E485E892E0F3
:101A60000E94120585E892E00E94AF04E6CF85E867
:101A700092E00E94250760919502709196028091F4
:101A80009702909198020E94CC1126E535E545ED2C
:101A900052E40E949B1360930001709301018093B4
:101AA0000201909303018091950290919602A0917A
:101AB0009702B0919802181619061A061B06A4F48C
:101AC00040E050E0BA0185E892E00E940E0740E055
:101AD00050E068EC75E485E892E00E94120585E824
:101AE00092E00E94AF04DFCF81E0809308010E9462
:101AF000590184E6882E912CA12CB12C98EE292E28
:101B000090E0392E00E010E028EF422E2AE2522E1B
:101B1000612C712CC8E180910801882309F495C1DA
:101B200088EE91E00E94ED01181619060CF09BC199
:101B30008091DE0181119CC188EE91E00E94CB0171
:101B40009091DD01E92FF0E0EC53FE4F8C3709F462
:101B5000DEC180839F5F993108F083C19093DD01DE
:101B60008091C0019091C101A091C201B091C301C7
:101B70004091B0015091B1016091B2017091B301F7
:101B800084179507A607B70709F44DC08093B001E5
:101B90009093B101A093B201B093B301893F9A42EF
:101BA000A105B10544F04092C0015092C10160927C
:101BB000C2017092C3018091C0019091C101A091B6
:101BC000C201B091C301B7FF08C01092C0011092CA
:101BD000C1011092C2011092C30120910401309101
:101BE000050140910601509107016091C00170917B
:101BF000C1018091C2019091C3010E947E1328EF20
:101C00003AE240E050E00E94EC12BA01A90189ECEE
:101C100092E00E940E0740E050E068E476E489EC30
:101C200092E00E94120589EC92E00E94AF04C090FD
:101C3000BC01D090BD01E090BE01F090BF012091A9
:101C4000AC013091AD014091AE015091AF01C7019F
:101C5000B6010E94C511882309F46FC0C092AC017F
:101C6000D092AD01E092AE01F092AF0120E030E001
:101C700040EA53E4C701B6010E94B014181664F498
:101C800080E090E0A0EAB3E48093BC019093BD01B2
:101C9000A093BE01B093BF0120E030E0A9016091A4
:101CA000BC017091BD018091BE019091BF010E9465
:101CB000C51187FF08C01092BC011092BD0110929F
:101CC000BE011092BF0120E030E048EC52E4609188
:101CD000BC017091BD018091BE019091BF010E9435
:101CE0002B120E947A146B017C01609100017091AB
:101CF000010180910201909103010E947A14A701D1
:101D000096010E947E1320E03DE740E050E00E94F3
:101D1000EC12CA01B9010E94CC110E947A14AB01E5
:101D2000BC0185E892E00E940E0740E050E068E4C4
:101D300076E485E892E00E94120585E892E00E9430
:101D4000AF048091BA019091BB012091AA0130911A
:101D5000AB018217930721F00A9714F40E9416082A
:101D6000C090B601D090B701E090B801F090B901F1
:101D70002091A6013091A7014091A8015091A9019D
:101D8000C701B6010E94C5118823F1F0C092A601D7
:101D9000D092A701E092A801F092A90120E030E0E2
:101DA00040E450E4C701B6010E94B01487FDB6C0FC
:101DB00061E086E00E94A50061E087E00E94A50046
:101DC00061E088E00E94A500E090B401F090B501C8
:101DD0008091A4019091A501E816F906B1F1F09265
:101DE000A501E092A4018091630390916403181609
:101DF000190694F42FE030E0D7010E949413A50156
:101E000094010E94EC122031310530F4422F6AE037
:101E100090E080E00E9499072EE130E0D7010E9417
:101E20009413A50194010E94EC12D22EC32EE22E2F
:101E3000F32E61E089E00E94F100E114F10409F061
:101E400091C060E089E00E94A5000115110509F428
:101E500062CE0E94F901882309F45DCE0E94000041
:101E60005ACEC093DD018091DE01882309F478CE3B
:101E700069E971E084EC91E00E9420100E94021058
:101E8000092E000CAA0BBB0B8093C0019093C101DB
:101E9000A093C201B093C3016BE971E090E080E0D0
:101EA0000E9420100E94FE0F6093BC017093BD0140
:101EB0008093BE019093BF016DE971E090E080E0F6
:101EC0000E9420100E9402109093BB018093BA01DF
:101ED0006FE971E090E080E00E9420100E94FE0F08
:101EE0006093B6017093B7018093B8019093B901E4
:101EF00061EA71E090E080E00E9420100E940210F0
:101F00009093B5018093B4011092DE0129CE108226
:101F10001092DD0181E08093DE01A5CF20E030E06A
:101F200040E050E4C701B6010E94B01487FD0AC02A
:101F300061E086E00E94A50061E087E00E94A500C4
:101F400060E03FCF20E030E040E85FE3C701B6014A
:101F50000E94B01461E087FD60E086E00E94A50069
:101F600060E0EBCF8FEFE816F10411F461E06ACF87
:101F7000F1018491833031F148F48130C9F082302D
:101F8000E1F0F0E8EF16F1048CF75BCF873031F128
:101F9000883061F18430A9F780918000806280935D
:101FA00080008D2D9C2D90938B0080938A004DCFC7
:101FB00084B5806884BDD7BC48CF84B5806284BDB9
:101FC000D8BC43CF809180008068809380008D2DA5
:101FD0009C2D909389008093880037CF8091B0002A
:101FE00080688093B000D092B3002FCF8091B00072
:101FF00080628093B000D092B40027CF6627772705
:102000000C945410FC0188279927E89421912032E0
:10201000E9F3293010F02E30C8F32B3241F02D3285
:1020200039F4689404C00E944C10820F911D2191D4
:1020300020532A30C0F31EF4909581959F4F089548
:1020400045E653E00E9425100895FA01A191B08160
:10205000009719F41097E1F0CD01DC01CD010D904E
:10206000002011F4C00113C0FB012191222319F0BB
:102070002015D9F7F3CFFB012191201519F41E92F9
:10208000119606C02223C1F70D900020A1F7D001C0
:10209000FA01A193B08308957AE0979F902D879FCE
:1020A000802D910D11240895B0E0A0E0EAE5F0E163
:1020B0000C941C135C017B016115710519F0DB01A7
:1020C0008D939C9385010F5F1F4FF501D0818D2F5C
:1020D00090E00E94A4116C01892BB9F5DD32B9F5AD
:1020E0000F5F1F4FD5011196DC91C1E05801F1E05F
:1020F000AF1AB10843E050E060E770E0C5010E940C
:10210000AD11892B69F5680182E0C80ED11C45E04C
:1021100050E06BE670E0C6010E94AD11892B21F4FE
:10212000680197E0C90ED11CE114F10419F0D70140
:10213000CD92DC9260E070E080E89FEFC111FFC0BB
:1021400060E070E080E89FE7FAC05801BBCFDB3267
:1021500029F485010E5F1F4FF501D181C0E0C6CF84
:1021600043E050E068E670E0C5010E94AD11892BA4
:10217000E9F0F80110E000E020E030E0A9015F01A3
:10218000B0ED8B2E8D0E89E08815C8F19C2E6894D9
:1021900091F88C2F8870C2FF16C0811102C00F5FAA
:1021A0001F4F3196D501DC91C92DE9CFE114F1041F
:1021B00029F00E5F1F4FF7011183008360E070E08C
:1021C00080EC9FE7BCC0882311F001501109A5E005
:1021D000B0E00E940B139B01AC01220F331F441F80
:1021E000551F280D311D411D511D283999E9390709
:1021F000490799E15907A8F2C6609C2ED2CFAEEFED
:102200008A1206C0C3FD3CC09C2E689493F8C9CFC7
:10221000DF7DD534A9F580818D3239F4C061DF01CD
:102220001296818162E070E006C0DF018B32C1F35B
:10223000119661E070E080535D01A61AB70A8A30FA
:10224000F8F4E0E8CE16ECE0DE065CF4B601660FCA
:10225000771F660F771FC60ED71ECC0CDD1CC80E6D
:10226000D11C5D01FFEFAF1ABF0A8C9180538A30F9
:10227000A8F1C4FF03C0D194C194D1080C0D1D1D59
:10228000C1FF09C0E114F10431F081E0A81AB108DE
:10229000D701AD92BC92CA01B9010E94CA11C370A4
:1022A000C33009F490584B015C0120E030E0A901F3
:1022B0000E94C511882309F440C0CFE9D0E017FF80
:1022C00005C0119501951109C7E8D0E06E01B8E18C
:1022D000CB1AD10880E2E82EF12C0FC0D501B1CF86
:1022E000FE0125913591459154910E191F09C501A3
:1022F000B4010E942B124B015C01D501C4010E15E3
:102300001F0574F72497F594E794CC16DD06A9F71A
:102310008A2F880F8B2F881F8F3F49F020E030E0F5
:10232000A901C501B4010E94C511811106C082E254
:1023300090E09093680380936703C501B401CDB723
:10234000DEB7ECE00C94381391110C9498128032A3
:1023500019F089508550C8F70895FB01DC01415000
:10236000504088F08D9181341CF08B350CF4805EE8
:10237000659161341CF06B350CF4605E861B611155
:1023800071F3990B0895881BFCCF0E94071208F483
:1023900081E00895E89409C097FB3EF490958095FC
:1023A000709561957F4F8F4F9F4F9923A9F0F92F1B
:1023B00096E9BB279395F695879577956795B79599
:1023C000F111F8CFFAF4BB0F11F460FF1BC06F5F7F
:1023D0007F4F8F4F9F4F16C0882311F096E911C091
:1023E000772321F09EE8872F762F05C0662371F0B2
:1023F00096E8862F70E060E02AF09A95660F771FC6
:10240000881FDAF7880F9695879597F90895990FA1
:102410000008550FAA0BE0E8FEEF16161706E807AE
:10242000F907C0F012161306E407F50798F0621BCF
:10243000730B840B950B39F40A2661F0232B242BA4
:10244000252B21F408950A2609F4A140A6958FEFC3
:10245000811D811D08950E943E120C94B2120E94AB
:10246000A41238F00E94AB1220F0952311F00C94C6
:102470009B120C94A11211240C94E6120E94C31218
:1024800070F3959FC1F3950F50E0551F629FF001C7
:10249000729FBB27F00DB11D639FAA27F00DB11DE0
:1024A000AA1F649F6627B00DA11D661F829F222769
:1024B000B00DA11D621F739FB00DA11D621F839FF0
:1024C000A00D611D221F749F3327A00D611D231FC6
:1024D000849F600D211D822F762F6A2F11249F5714
:1024E00050409AF0F1F088234AF0EE0FFF1FBB1F17
:1024F000661F771F881F91505040A9F79E3F5105D6
:1025000080F00C949B120C94E6125F3FE4F3983E2B
:10251000D4F3869577956795B795F795E7959F5F7F
:10252000C1F7FE2B880F911D9695879597F9089511
:1025300099278827089597F99F6780E870E060E001
:1025400008959FEF80EC089500240A94161617064C
:1025500018060906089500240A9412161306140694
:1025600005060895092E0394000C11F4882352F0F7
:10257000BB0F40F4BF2B11F460FF04C06F5F7F4FAF
:102580008F4F9F4F089557FD9058440F551F59F096
:102590005F3F71F04795880F97FB991F61F09F3F50
:1025A00079F087950895121613061406551FF2CF79
:1025B0004695F1DF08C0161617061806991FF1CFC9
:1025C00086957105610508940895E894BB276627F0
:1025D0007727CB0197F90895052E97FB1EF40094F9
:1025E0000E94031357FD07D00E944D1307FC03D030
:1025F0004EF40C94031350954095309521953F4F20
:102600004F4F5F4F089590958095709561957F4FDE
:102610008F4F9F4F08950E946F13A59F900DB49FF9
:10262000900DA49F800D911D112408952F923F922B
:102630004F925F926F927F928F929F92AF92BF92D2
:10264000CF92DF92EF92FF920F931F93CF93DF937E
:10265000CDB7DEB7CA1BDB0B0FB6F894DEBF0FBEDB
:10266000CDBF09942A88398848885F846E847D8428
:102670008C849B84AA84B984C884DF80EE80FD802A
:102680000C811B81AA81B981CE0FD11D0FB6F894A0
:10269000DEBF0FBECDBFED010895A1E21A2EAA1B29
:1026A000BB1BFD010DC0AA1FBB1FEE1FFF1FA21702
:1026B000B307E407F50720F0A21BB30BE40BF50BFF
:1026C000661F771F881F991F1A9469F76095709588
:1026D000809590959B01AC01BD01CF010895A29F0B
:1026E000B001B39FC001A39F700D811D1124911DE6
:1026F000B29F700D811D1124911D0895DB018F93F0
:102700009F930E940B13BF91AF91A29F800D911DCB
:10271000A39F900DB29F900D11240895EE0FFF1FFF
:102720000590F491E02D09940E946F13B7FF08956E
:10273000821B930B08955058BB27AA270E94B313FE
:102740000C94B2120E94A41238F00E94AB1220F036
:1027500039F49F3F19F426F40C94A1120EF4E0957D
:10276000E7FB0C949B12E92F0E94C31258F3BA178F
:10277000620773078407950720F079F4A6F50C9497
:10278000E5120EF4E0950B2EBA2FA02D0B01B90126
:1027900090010C01CA01A0011124FF27591B99F0D7
:1027A000593F50F4503E68F11A16F040A22F232FE3
:1027B000342F4427585FF3CF469537952795A79533
:1027C000F0405395C9F77EF41F16BA0B620B730BDA
:1027D000840BBAF09150A1F0FF0FBB1F661F771F4B
:1027E000881FC2F70EC0BA0F621F731F841F48F400
:1027F000879577956795B795F7959E3F08F0B0CF89
:102800009395880F08F09927EE0F9795879508956F
:102810000E941C140C94B2120E94AB1258F00E9439
:10282000A41240F029F45F3F29F00C949B1251113F
:102830000C94E6120C94A1120E94C31268F399231F
:10284000B1F3552391F3951B550BBB27AA276217AC
:102850007307840738F09F5F5F4F220F331F441FB9
:10286000AA1FA9F335D00E2E3AF0E0E832D09150ED
:102870005040E695001CCAF72BD0FE2F29D0660FDA
:10288000771F881FBB1F261737074807AB07B0E81D
:1028900009F0BB0B802DBF01FF2793585F4F3AF023
:1028A0009E3F510578F00C949B120C94E6125F3F0A
:1028B000E4F3983ED4F3869577956795B795F795A9
:1028C0009F5FC9F7880F911D9695879597F9089591
:1028D000E1E0660F771F881FBB1F6217730784072D
:1028E000BA0720F0621B730B840BBA0BEE1F88F73C
:1028F000E09508950E9481146894B1110C94E61239
:1029000008950E94CB1288F09F5798F0B92F99270D
:10291000B751B0F0E1F0660F771F881F991F1AF0CA
:10292000BA95C9F714C0B13091F00E94E512B1E038
:1029300008950C94E512672F782F8827B85F39F037
:10294000B93FCCF3869577956795B395D9F73EF463
:1029500090958095709561957F4F8F4F9F4F08950B
:102960000E94071208F48FEF08950F931F93CF93DF
:10297000DF938230910510F482E090E0E0916B03E8
:10298000F0916C0330E020E0B0E0A0E0309799F4E3
:102990002115310509F44AC0281B390B24303105B3
:1029A000D8F58A819B816115710589F1FB019383BB
:1029B0008283FE0111C04081518102811381481739
:1029C0005907E0F04817590799F4109761F01296EB
:1029D0000C93129713961C933296CF01DF91CF91EF
:1029E0001F910F91089500936B0310936C03F4CF24
:1029F0002115310551F04217530738F0A901DB01C9
:102A00009A01BD01DF01F801C1CFEF01F9CF909329
:102A10006C0380936B03CDCFFE01E20FF31F819314
:102A200091932250310939832883D7CF20916903AC
:102A300030916A03232B41F420910B0130910C015A
:102A400030936A03209369032091090130910A01B0
:102A50002115310541F42DB73EB740910D0150913C
:102A60000E01241B350BE0916903F0916A03E21714
:102A7000F307A0F42E1B3F0B2817390778F0AC01A1
:102A80004E5F5F4F2417350748F04E0F5F1F50937E
:102A90006A0340936903819391939FCFF0E0E0E054
:102AA0009CCFCF93DF930097E9F0FC01329713821C
:102AB0001282A0916B03B0916C03ED0130E020E035
:102AC0001097A1F420813181820F931F2091690317
:102AD00030916A032817390709F061C0F0936A033F
:102AE000E0936903DF91CF910895EA01CE17DF07E4
:102AF000E8F54A815B819E0141155105B1F7E90175
:102B0000FB83EA8349915991C40FD51FEC17FD0748
:102B100061F4808191810296840F951FE901998368
:102B20008883828193819B838A83F0E0E0E0129620
:102B30008D919C9113970097B9F52D913C91119728
:102B4000CD010296820F931F2091690330916A0391
:102B50002817390739F6309751F510926C03109207
:102B60006B03B0936A03A0936903BCCFD383C28382
:102B700040815181840F951FC817D90761F44E5FBA
:102B80005F4F88819981480F591F518340838A8103
:102B90009B81938382832115310509F0B0CFF09397
:102BA0006C03E0936B039ECFFD01DC01C0CF138269
:082BB0001282D7CFF894FFCF89
:102BB8000100C845001900000100006D038000FEF7
:102BC800FFE7FFFEE7E7E7E7F7F7FFFFEFEFE71CB1
:102BD8003C7C1C1C1C1C1C7EFFE70E38E0FFFFFE23
:102BE800FF07FFFF07FFFEEEEEEEFFFF0E0E0EFFE4
:102BF800FFE0FEFF07FF7E7EFFE0FEFFE7FF7EFFB0
:102C0800FF070E1C3838387EFFE77E7EE7FF7E7EA2
:102C1800FFE7FF7F07FF7E00000000D0029C0298BC
:102C2800079708870531046F041B04E903C8039458
:102C38000373031D03EE02000000002F028F01BC86
:102C4800017C02ED01CB01DF015200530047004C2B
:042C58000044000034
:00000001FF
